:0400000080313128F2
:100008007E1480314E01961E0A280B2813288C1E58
:100018000E280F2813288331C52380312F28161E58
:10002800162817281F280C1E1A281B281F28843159
:10003800072480312F280B1F222823282F281A1C39
:10004800262827282F28101C2A282B282F288331D8
:10005800672380312F287E100900803133287330C0
:10006800840080308500E03086002230870001302F
:10007800FF0010308331F1238031783084008230E2
:10008800850020308600003087000030FF003630C1
:100098008331F12380313830840082308500A030EC
:1000A8008600003087000030FF0040308331F123A4
:1000B8008031F030840081308500203086000130A6
:1000C80087000030FF0048308331F1238031F90187
:1000D800FA01FB01E0017E1040018331922B4F347D
:1000E8004F344F3446344F3401345E345E345E341A
:1000F8005E345E3401344F344F344F3446344F3419
:1001080001345E345E345E345E345E34013434343B
:10011800343434340134343401343E343E343E34DF
:100128003E343E3401343B343B343B3401343B34BD
:1001380001344F344F344F344F344F340134463444
:10014800463446340134463401343B343B343B3482
:100158003E34463401344F344F344F3446344F34F0
:1001680001345E345E345E345E345E3401344634C9
:10017800463446340134463401343B343B343B3452
:100188003E34463401344F344F344F3446344F34C0
:1001980001345E345E345E345E345E3401343434AB
:1001A800343434340134343401342C342C342C3485
:1001B80034343E3401343B343B343B343B343B34FD
:1001C8003B342E342E342E342E342E3401343B342A
:1001D8003B344F344F345E345E344F344F344F34F5
:1001E8005834693401347634763476347634763457
:1001F80076347634763401340134013401342734CA
:10020800273427342C342E340134343401343B342D
:100218003B34343434342E342E343B343B3434348D
:100228002E342C3434342E342E34013434343B34CC
:1002380001343E3401343B343B3401340134273437
:10024800273427342C342E340134343401343B34ED
:100258003B34343434342E342E343B343B3434344D
:100268002E342C3434342E342E34013434343B348C
:1002780001343E3401343B343B34013401343434EA
:10028800343434342E342C340134343401342E34A0
:100298002E342C342C34273427342E3401342E3485
:1002A8002C342734013423343E343B3401341F3496
:1002B8001F34233423342734273427340134273494
:1002C800273427342C342E340134343401343B346D
:1002D8003B34343434342E342E343B343B342334DE
:1002E8002334233423342734273401342C342E3454
:1002F8000134343401343B343B343B340134013071
:100308004001DE005E08F90707307906031D8D29D4
:100318008E29D329F901F90AD32946019613EF2921
:100328002630F3000030F4003030DE005E08F500BF
:100338008231AE228131EF29A030F3000030F40081
:100348004030DE005E08F5008231AE228131EF29AF
:100358007030F3002330F4008030DE005E08F500D2
:100368008231AE228131EF292030F3000130F400D0
:100378004830DE005E08F5008231AE228131EF2977
:10038800E030F3002230F4009030DE005E08F50023
:100398008231AE228131EF2946019613EF2979087F
:1003A800DE00DF015F08003A0319DB29D0295E0867
:1003B800013A03199129033A03199429013A0319B7
:1003C800A029073A0319AC29013A0319B829033AB5
:1003D8000319C429D029080027342734273427349F
:1003E8003B343B343B343B342334233427342C34E0
:1003F800273427343B34013423340134273401347F
:100408002C3401342E3401342C3401342E3401348C
:1004180034343434343401342734273427342734FB
:100428003B343B343B343B34233423341F341C34B7
:10043800273427343B3401342C3401342E3401342E
:100448003B3401344F3401342C3401342E3401341C
:100458003B340134343401343B343B343B343B3497
:100468003B343B343B3401344F344F3401344F3444
:100478004F345834013476344F344F34463458347A
:1004880001340134693469344F344F34463401340B
:1004980058340134693401345E3458345E34693474
:1004A80069340134013401344634463401344F345C
:1004B8004F344F34013469344634423446344F346F
:1004C8004F344F34013458345E3458345E345E341B
:1004D8000134583401345E345E34763476347634FC
:1004E80076340134013401340134483440348034E2
:1004F80090343034763401345834013458344F341D
:1005080058345E346934013469340134693401344F
:100518004F3401344F3446344F3458345E34013448
:100528007634013476340134463401344634423466
:1005380046344F34583401346934013476347634CF
:10054800693401344F3401345E3401345834013491
:100558000134013446019617FB01F701F801D22A4C
:100568007708730786007808743D8700010884318E
:10057800312482314130F600EE30890BC12AF60B66
:10058800C12A00327B03031DCA2ACB2ACE2A460180
:100598009613DF2A0130F7070030F83D7808803AD3
:1005A800F60080307602031DDB2A75087702031CEB
:1005B800DE2ADF2AB42A4601961308004001980172
:1005C80008309A00373092003130940027307E018D
:1005D800CE001B30B800B901CF01BA01D0011F30DD
:1005E800BB003F30D1003F30BC003F30D200551235
:1005F800541253163930F2000430F30084312B249E
:1006080082314E01161602307D01B10005307E019F
:10061800A3000630A200080044018F0190010130B8
:1006280091003C308D00B0308C004E011010440118
:100638000D084001DB0044010C084001DA004E01BE
:100648001A143C30F2000430F30084311F24833143
:1006580044018E01080040010E1E332B342B482B19
:10066800A001FB01FB0A7A0803193B2B3D2B013043
:100678003E2B0030F0007008FA007A0C031C9A1028
:1006880003189A147E0155128431362483314B01A4
:100698009C0108008431102483318231E2228331A5
:1006A8008331FD2383318431182483318331E3235B
:1006B800833183311023833183317E238331833126
:1006C800B623833108004E01101040015B08F10089
:1006D8005A08F0008331A523833140015808590492
:1006E8000319772B782B7D2B59088A0058080A00A4
:1006F8008331080040304B019F00F9309D009C0178
:100708004E018C1296162F30F2000330F30084311C
:10071800252483310F304B019E00080083314E237E
:1007280083318B170B1781318321833140012008D6
:10073800031D9F2BA02B9A2BA001A00A972B803179
:10074800312844010E1DA92BAA2BB12B0E107108BC
:100758008D0070088C000E14B52B71088D00700880
:100768008C00080002304C0191008E018F0114307A
:100778009200930194018C0103308D008530900024
:1007880008004E018C124001560857040319CD2B5E
:10079800CE2BD32B57088A0056080A00833108004D
:1007A80040015C085D040319DA2BDB2BE02B5D08A4
:1007B8008A005C080A0083317E0155120800013066
:1007C800450190008F0191013E308D008C014E0152
:1007D8009010B03045018E000800FE0012001E0087
:1007E8000130FE020030FF3B7F087E04031DF22B20
:1007F8000034623051018D008F0191010230930065
:100808009001920108007E01551E0B2C0C2C0F2C18
:100818008331D423843108004F0196019701980150
:1008280099019A019B010800460196011F30950025
:1008380040309400080073084001D9007208D800BD
:10084800080073084001D7007208D6000800730832
:100858004001DD007208DC000800F2007208450162
:100868008D0008004B019E1308004B019E170800DD
:02087800080076
:020000040001F9
:0A000E00EC3FFF3F9F3FFF3FFF3F25
:00000001FF
